S015000054726162616C686F4578616D652E73726563F2
S11300000C9434000C9451000C9451000C94510045
S11300100C9451000C9451000C9451000C94510018
S11300200C9451000C9451000C9451000C94510008
S11300300C9451000C9451000C9451000C945100F8
S11300400C9451000C9451000C9451000C945100E8
S11300500C9451000C9451000C9451000C945100D8
S11300600C9451000C94510011241FBECFEFD8E022
S1130070DEBFCDBF11E0A0E0B1E0E6EAF4E002C0EB
S113008005900D92A832B107D9F721E0A8E2B1E0BA
S113009001C01D92AA32B207E1F70E9433020C9408
S11300A051020C9400008BB9589859985A9A8FE9C8
S11300B09FE00197F1F700C000005A989FEF23EFEB
S11300C081E0915020408040E1F700C00000089595
S11300D0CF93C82F807F0E9453008C2F8295807FFE
S11300E00E945300CF910895CF93DF9300D000D0A6
S11300F0CDB7DEB790E8998390EC9A8394E99B831B
S113010094ED9C83FE01E60FF11D81509081890FCF
S11301100E9468008FE891E00197F1F700C00000A9
S11301200F900F900F900F90DF91CF91089582E080
S11301300E9468008FE99FE00197F1F700C000007A
S113014088E20E9468008FE99FE00197F1F700C000
S1130150000081E00E9468008FE99FE00197F1F7B9
S113016000C000008EE00E9468008FE99FE00197C4
S1130170F1F700C0000080E80E9468008FE99FE06A
S11301800197F1F700C0000008958BB9589A599867
S11301905A9A8FE99FE00197F1F700C000005A983E
S11301A09FEF23EF81E0915020408040E1F700C0B1
S11301B000000895CF93C82F807F0E94C5008C2F24
S11301C08295807F0E94C500CF910895CF93DF93DD
S11301D0EC018881882331F021960E94DA0089910C
S11301E08111FBCFDF91CF910895CF9326B197B1C1
S11301F08FE0982797B994B1982794B998B1982724
S113020098B995B1892785B98FE19EE40197F1F7F3
S113021000C00000C3B1C295C07FC22BCE3E71F4B2
S113022080E091E00E94E6008091280190912901EC
S11302300196909329018093280120C0CE3D71F44A
S113024082E091E00E94E6008091280190912901CA
S11302500196909329018093280120C0CE3B71F42C
S113026084E091E00E94E6008091280190912901A8
S11302700196909329018093280120C0CE3771F410
S113028086E091E00E94E600809128019091290186
S11302900196909329018093280120C0CD3E71F4EA
S11302A088E091E00E94E600809128019091290164
S11302B00196909329018093280120C0CD3D71F4CB
S11302C08AE091E00E94E600809128019091290142
S11302D00196909329018093280120C0CD3B71F4AD
S11302E08CE091E00E94E600809128019091290120
S11302F00196909329018093280120C0CD3771F491
S11303008EE091E00E94E6008091280190912901FD
S11303100196909329018093280120C0CB3E71F46B
S113032080E191E00E94E6008091280190912901EA
S11303300196909329018093280120C0CB3D71F44C
S113034082E191E00E94E6008091280190912901C8
S11303500196909329018093280120C0CB3B71F42E
S113036084E191E00E94E6008091280190912901A6
S11303700196909329018093280120C0CB3771F412
S113038086E191E00E94E600809128019091290184
S11303900196909329018093280120C0C73E71F4EF
S11303A088E191E00E94E600809128019091290162
S11303B00196909329018093280120C0C73D71F4D0
S11303C08AE191E00E94E600809128019091290140
S11303D0019690932901809328011FC0C73B71F4B3
S11303E08CE191E00E94E60080912801909129011E
S11303F0019690932901809328010FC0C73769F4AF
S11304008EE191E00E94E6008091280190912901FB
S1130410019690932901809328018091280190915D
S113042029014097F4F081E00E9468008FE99FE081
S11304300197F1F700C0000080E80E9468008FE98E
S11304409FE00197F1F700C0000080E291E00E9474
S1130450E60062E081E00E9474001092290110928B
S11304602801CF9108958FEF8AB90E9497008FE1F8
S11304709EE40197F1F700C0000061E081E00E9472
S1130480740080E291E00E94E60062E081E00E9454
S113049074008FE084B917B815B888B90E94F500C4
S10904A0FDCFF894FFCF2C
S11304A63100340037002A003200350038003000AD
S11304B63300360039003D00410042004300440049
S10B04C64469676974650000D4
S9030000FC
